{
  "contractName": "vs9000Snicker",
  "abi": [
    {
      "constant": true,
      "inputs": [],
      "name": "counter",
      "outputs": [
        {
          "name": "",
          "type": "uint256"
        }
      ],
      "payable": false,
      "stateMutability": "view",
      "type": "function"
    },
    {
      "inputs": [
        {
          "name": "_counter",
          "type": "uint256"
        }
      ],
      "payable": false,
      "stateMutability": "nonpayable",
      "type": "constructor"
    },
    {
      "constant": false,
      "inputs": [],
      "name": "buySnickers",
      "outputs": [
        {
          "name": "",
          "type": "bool"
        }
      ],
      "payable": false,
      "stateMutability": "nonpayable",
      "type": "function"
    },
    {
      "constant": false,
      "inputs": [],
      "name": "getCount",
      "outputs": [
        {
          "name": "",
          "type": "uint256"
        }
      ],
      "payable": false,
      "stateMutability": "nonpayable",
      "type": "function"
    },
    {
      "constant": false,
      "inputs": [],
      "name": "resetCounter",
      "outputs": [
        {
          "name": "",
          "type": "bool"
        }
      ],
      "payable": false,
      "stateMutability": "nonpayable",
      "type": "function"
    }
  ],
  "bytecode": "0x6060604052341561000f57600080fd5b6040516020806101b5833981016040528080519060200190919050508060008190555050610173806100426000396000f300606060405260043610610062576000357c0100000000000000000000000000000000000000000000000000000000900463ffffffff16806361bc221a146100675780637ae57aab14610090578063a87d942c146100bd578063dbdf7fce146100e6575b600080fd5b341561007257600080fd5b61007a610113565b6040518082815260200191505060405180910390f35b341561009b57600080fd5b6100a3610119565b604051808215151515815260200191505060405180910390f35b34156100c857600080fd5b6100d061012e565b6040518082815260200191505060405180910390f35b34156100f157600080fd5b6100f9610137565b604051808215151515815260200191505060405180910390f35b60005481565b60006001600054016000819055506001905090565b60008054905090565b60008060008190555060019050905600a165627a7a723058206aca2ad3b818195b8ee7e7c7cb0263ea8b7f54388d32520e33cd65c414bdf35c0029",
  "source": "pragma solidity ^0.4.4;\n\ncontract vs9000Snicker {\n\n    uint public counter;\n\n    function vs9000Snicker(uint _counter) {\n        counter = _counter;\n    }\n\n    function buySnickers() returns (bool) {\n        counter = counter + 1;\n        return true;\n    }\n\n    function getCount() returns (uint) {\n        return counter;\n    }\n\n    function resetCounter() returns (bool) {\n        counter = 0;\n        return true;\n    }\n}\n",
  "sourcePath": "/home/mario/WebstormProjects/vendorSimulator9000/contractDevelopment/contracts/vs9000Snicker.sol",
  "compiler": {
    "name": "solc",
    "version": "0.4.19+commit.c4cbbb05.Emscripten.clang"
  },
  "schemaVersion": "2.0.0",
  "updatedAt": "2018-03-12T11:06:20.986Z"
}